{
  "contractName": "AgromartContract",
  "abi": [
    {
      "inputs": [
        {
          "internalType": "string",
          "name": "_name",
          "type": "string"
        },
        {
          "internalType": "address",
          "name": "_accessor",
          "type": "address"
        }
      ],
      "payable": false,
      "stateMutability": "nonpayable",
      "type": "constructor"
    },
    {
      "constant": true,
      "inputs": [],
      "name": "accessor",
      "outputs": [
        {
          "internalType": "address",
          "name": "",
          "type": "address"
        }
      ],
      "payable": false,
      "stateMutability": "view",
      "type": "function"
    },
    {
      "constant": true,
      "inputs": [],
      "name": "buyerAddress",
      "outputs": [
        {
          "internalType": "bytes32",
          "name": "reciepientName",
          "type": "bytes32"
        },
        {
          "internalType": "bytes32",
          "name": "line1",
          "type": "bytes32"
        },
        {
          "internalType": "bytes32",
          "name": "city",
          "type": "bytes32"
        },
        {
          "internalType": "bytes32",
          "name": "postalCode",
          "type": "bytes32"
        },
        {
          "internalType": "bytes32",
          "name": "countryCode",
          "type": "bytes32"
        }
      ],
      "payable": false,
      "stateMutability": "view",
      "type": "function"
    },
    {
      "constant": true,
      "inputs": [],
      "name": "name",
      "outputs": [
        {
          "internalType": "string",
          "name": "",
          "type": "string"
        }
      ],
      "payable": false,
      "stateMutability": "view",
      "type": "function"
    },
    {
      "constant": false,
      "inputs": [
        {
          "internalType": "bytes32",
          "name": "reciepientName",
          "type": "bytes32"
        },
        {
          "internalType": "bytes32",
          "name": "line1",
          "type": "bytes32"
        },
        {
          "internalType": "bytes32",
          "name": "city",
          "type": "bytes32"
        },
        {
          "internalType": "bytes32",
          "name": "postalCode",
          "type": "bytes32"
        },
        {
          "internalType": "bytes32",
          "name": "countryCode",
          "type": "bytes32"
        }
      ],
      "name": "setAddress",
      "outputs": [],
      "payable": false,
      "stateMutability": "nonpayable",
      "type": "function"
    },
    {
      "constant": false,
      "inputs": [
        {
          "internalType": "bytes32",
          "name": "paymentId",
          "type": "bytes32"
        },
        {
          "internalType": "bytes32",
          "name": "username",
          "type": "bytes32"
        },
        {
          "internalType": "bytes32",
          "name": "email",
          "type": "bytes32"
        },
        {
          "internalType": "bytes32",
          "name": "timestamps",
          "type": "bytes32"
        }
      ],
      "name": "setPayment",
      "outputs": [],
      "payable": false,
      "stateMutability": "nonpayable",
      "type": "function"
    },
    {
      "constant": false,
      "inputs": [
        {
          "internalType": "bytes32",
          "name": "_id",
          "type": "bytes32"
        },
        {
          "internalType": "bytes32",
          "name": "title",
          "type": "bytes32"
        },
        {
          "internalType": "uint256",
          "name": "price",
          "type": "uint256"
        },
        {
          "internalType": "uint256",
          "name": "quantity",
          "type": "uint256"
        },
        {
          "internalType": "bytes32",
          "name": "images",
          "type": "bytes32"
        }
      ],
      "name": "setProduct",
      "outputs": [],
      "payable": false,
      "stateMutability": "nonpayable",
      "type": "function"
    },
    {
      "constant": true,
      "inputs": [],
      "name": "getPayments",
      "outputs": [
        {
          "internalType": "bytes32[]",
          "name": "",
          "type": "bytes32[]"
        },
        {
          "internalType": "bytes32[]",
          "name": "",
          "type": "bytes32[]"
        },
        {
          "internalType": "bytes32[]",
          "name": "",
          "type": "bytes32[]"
        },
        {
          "internalType": "bytes32[]",
          "name": "",
          "type": "bytes32[]"
        }
      ],
      "payable": false,
      "stateMutability": "view",
      "type": "function"
    },
    {
      "constant": true,
      "inputs": [],
      "name": "getAllAddress",
      "outputs": [
        {
          "internalType": "bytes32[]",
          "name": "",
          "type": "bytes32[]"
        },
        {
          "internalType": "bytes32[]",
          "name": "",
          "type": "bytes32[]"
        },
        {
          "internalType": "bytes32[]",
          "name": "",
          "type": "bytes32[]"
        },
        {
          "internalType": "bytes32[]",
          "name": "",
          "type": "bytes32[]"
        },
        {
          "internalType": "bytes32[]",
          "name": "",
          "type": "bytes32[]"
        }
      ],
      "payable": false,
      "stateMutability": "view",
      "type": "function"
    },
    {
      "constant": true,
      "inputs": [
        {
          "internalType": "bytes32",
          "name": "paymentId",
          "type": "bytes32"
        }
      ],
      "name": "getProducts",
      "outputs": [
        {
          "internalType": "bytes32[]",
          "name": "_id",
          "type": "bytes32[]"
        },
        {
          "internalType": "bytes32[]",
          "name": "_title",
          "type": "bytes32[]"
        },
        {
          "internalType": "uint256[]",
          "name": "_price",
          "type": "uint256[]"
        },
        {
          "internalType": "uint256[]",
          "name": "_quantity",
          "type": "uint256[]"
        },
        {
          "internalType": "bytes32[]",
          "name": "_images",
          "type": "bytes32[]"
        }
      ],
      "payable": false,
      "stateMutability": "view",
      "type": "function"
    },
    {
      "constant": true,
      "inputs": [],
      "name": "getPaymentSize",
      "outputs": [
        {
          "internalType": "uint256",
          "name": "",
          "type": "uint256"
        }
      ],
      "payable": false,
      "stateMutability": "view",
      "type": "function"
    },
    {
      "constant": true,
      "inputs": [],
      "name": "getProductsLen",
      "outputs": [
        {
          "internalType": "uint256[]",
          "name": "",
          "type": "uint256[]"
        }
      ],
      "payable": false,
      "stateMutability": "view",
      "type": "function"
    }
  ],
  "bytecode": "0x60806040523480156200001157600080fd5b506040516200191038038062001910833981810160405260408110156200003757600080fd5b81019080805160405193929190846401000000008211156200005857600080fd5b838201915060208201858111156200006f57600080fd5b82518660018202830111640100000000821117156200008d57600080fd5b8083526020830192505050908051906020019080838360005b83811015620000c3578082015181840152602081019050620000a6565b50505050905090810190601f168015620000f15780820380516001836020036101000a031916815260200191505b506040526020018051906020019092919050505081600090805190602001906200011d92919062000167565b5080600160006101000a81548173ffffffffffffffffffffffffffffffffffffffff021916908373ffffffffffffffffffffffffffffffffffffffff160217905550505062000216565b828054600181600116156101000203166002900490600052602060002090601f016020900481019282601f10620001aa57805160ff1916838001178555620001db565b82800160010185558215620001db579182015b82811115620001da578251825591602001919060010190620001bd565b5b509050620001ea9190620001ee565b5090565b6200021391905b808211156200020f576000816000905550600101620001f5565b5090565b90565b6116ea80620002266000396000f3fe608060405234801561001057600080fd5b50600436106100a95760003560e01c80635a792854116100715780635a79285414610229578063715b208b146102755780639536884f146103f45780639c5d0a7614610453578063d19e7d32146104a9578063d56bd1421461064c576100a9565b806306fdde03146100ae57806328df97061461013157806344834aca14610187578063555e94f7146101c157806356857642146101df575b600080fd5b6100b6610783565b6040518080602001828103825283818151815260200191508051906020019080838360005b838110156100f65780820151818401526020810190506100db565b50505050905090810190601f1680156101235780820380516001836020036101000a031916815260200191505b509250505060405180910390f35b610185600480360360a081101561014757600080fd5b810190808035906020019092919080359060200190929190803590602001909291908035906020019092919080359060200190929190505050610821565b005b61018f610a3d565b604051808681526020018581526020018481526020018381526020018281526020019550505050505060405180910390f35b6101c9610a61565b6040518082815260200191505060405180910390f35b6101e7610a73565b604051808273ffffffffffffffffffffffffffffffffffffffff1673ffffffffffffffffffffffffffffffffffffffff16815260200191505060405180910390f35b6102736004803603608081101561023f57600080fd5b8101908080359060200190929190803590602001909291908035906020019092919080359060200190929190505050610a99565b005b61027d610c86565b60405180806020018060200180602001806020018060200186810386528b818151815260200191508051906020019060200280838360005b838110156102d05780820151818401526020810190506102b5565b5050505090500186810385528a818151815260200191508051906020019060200280838360005b838110156103125780820151818401526020810190506102f7565b50505050905001868103845289818151815260200191508051906020019060200280838360005b83811015610354578082015181840152602081019050610339565b50505050905001868103835288818151815260200191508051906020019060200280838360005b8381101561039657808201518184015260208101905061037b565b50505050905001868103825287818151815260200191508051906020019060200280838360005b838110156103d85780820151818401526020810190506103bd565b505050509050019a505050505050505050505060405180910390f35b6103fc610f08565b6040518080602001828103825283818151815260200191508051906020019060200280838360005b8381101561043f578082015181840152602081019050610424565b505050509050019250505060405180910390f35b6104a7600480360360a081101561046957600080fd5b810190808035906020019092919080359060200190929190803590602001909291908035906020019092919080359060200190929190505050610f65565b005b6104d5600480360360208110156104bf57600080fd5b8101908080359060200190929190505050611072565b60405180806020018060200180602001806020018060200186810386528b818151815260200191508051906020019060200280838360005b8381101561052857808201518184015260208101905061050d565b5050505090500186810385528a818151815260200191508051906020019060200280838360005b8381101561056a57808201518184015260208101905061054f565b50505050905001868103845289818151815260200191508051906020019060200280838360005b838110156105ac578082015181840152602081019050610591565b50505050905001868103835288818151815260200191508051906020019060200280838360005b838110156105ee5780820151818401526020810190506105d3565b50505050905001868103825287818151815260200191508051906020019060200280838360005b83811015610630578082015181840152602081019050610615565b505050509050019a505050505050505050505060405180910390f35b61065461138a565b6040518080602001806020018060200180602001858103855289818151815260200191508051906020019060200280838360005b838110156106a3578082015181840152602081019050610688565b50505050905001858103845288818151815260200191508051906020019060200280838360005b838110156106e55780820151818401526020810190506106ca565b50505050905001858103835287818151815260200191508051906020019060200280838360005b8381101561072757808201518184015260208101905061070c565b50505050905001858103825286818151815260200191508051906020019060200280838360005b8381101561076957808201518184015260208101905061074e565b505050509050019850505050505050505060405180910390f35b60008054600181600116156101000203166002900480601f0160208091040260200160405190810160405280929190818152602001828054600181600116156101000203166002900480156108195780601f106107ee57610100808354040283529160200191610819565b820191906000526020600020905b8154815290600101906020018083116107fc57829003601f168201915b505050505081565b600160009054906101000a900473ffffffffffffffffffffffffffffffffffffffff168073ffffffffffffffffffffffffffffffffffffffff163373ffffffffffffffffffffffffffffffffffffffff16146108c8576040517f08c379a00000000000000000000000000000000000000000000000000000000081526004018080602001828103825260268152602001806116906026913960400191505060405180910390fd5b600060078054905011610943576040517f08c379a000000000000000000000000000000000000000000000000000000000815260040180806020018281038252601f8152602001807f596f752068617665206e6f7420616464656420616e79207061796d656e742e0081525060200191505060405180910390fd5b61094b611587565b6040518060a00160405280888152602001878152602001868152602001858152602001848152509050600060076001600780549050038154811061098b57fe5b90600052602060002090600a02019050818160010160006008600160078054905003815481106109b757fe5b9060005260206000200154815260200190815260200160002060008201518160000155602082015181600101556040820151816002015560608201518160030155608082015181600401559050506001600860016007805490500381548110610a1c57fe5b90600052602060002001600082825401925050819055505050505050505050565b60028060000154908060010154908060020154908060030154908060040154905085565b60008060078054905090508091505090565b600160009054906101000a900473ffffffffffffffffffffffffffffffffffffffff1681565b600160009054906101000a900473ffffffffffffffffffffffffffffffffffffffff168073ffffffffffffffffffffffffffffffffffffffff163373ffffffffffffffffffffffffffffffffffffffff1614610b40576040517f08c379a00000000000000000000000000000000000000000000000000000000081526004018080602001828103825260268152602001806116906026913960400191505060405180910390fd5b610b486115bf565b6040518060a0016040528087815260200186815260200185815260200184815260200160026040518060a00160405290816000820154815260200160018201548152602001600282015481526020016003820154815260200160048201548152505081525090506007819080600181540180825580915050906001820390600052602060002090600a0201600090919290919091506000820151816000015560208201518160020155604082015181600301556060820151816004015560808201518160050160008201518160000155602082015181600101556040820151816002015560608201518160030155608082015181600401555050505050600780549050600881610c589190611600565b506000600860016007805490500381548110610c7057fe5b9060005260206000200181905550505050505050565b606080606080606080600780549050604051908082528060200260200182016040528015610cc35781602001602082028038833980820191505090505b5090506060600780549050604051908082528060200260200182016040528015610cfc5781602001602082028038833980820191505090505b5090506060600780549050604051908082528060200260200182016040528015610d355781602001602082028038833980820191505090505b5090506060600780549050604051908082528060200260200182016040528015610d6e5781602001602082028038833980820191505090505b5090506060600780549050604051908082528060200260200182016040528015610da75781602001602082028038833980820191505090505b50905060008090505b600780549050811015610eec5760078181548110610dca57fe5b90600052602060002090600a020160050160000154868281518110610deb57fe5b60200260200101818152505060078181548110610e0457fe5b90600052602060002090600a020160050160010154858281518110610e2557fe5b60200260200101818152505060078181548110610e3e57fe5b90600052602060002090600a020160050160020154848281518110610e5f57fe5b60200260200101818152505060078181548110610e7857fe5b90600052602060002090600a020160050160030154838281518110610e9957fe5b60200260200101818152505060078181548110610eb257fe5b90600052602060002090600a020160050160040154828281518110610ed357fe5b6020026020010181815250508080600101915050610db0565b5084848484849950995099509950995050505050509091929394565b6060806008805480602002602001604051908101604052809291908181526020018280548015610f5757602002820191906000526020600020905b815481526020019060010190808311610f43575b505050505090508091505090565b600160009054906101000a900473ffffffffffffffffffffffffffffffffffffffff168073ffffffffffffffffffffffffffffffffffffffff163373ffffffffffffffffffffffffffffffffffffffff161461100c576040517f08c379a00000000000000000000000000000000000000000000000000000000081526004018080602001828103825260268152602001806116906026913960400191505060405180910390fd5b6040518060a001604052808781526020018681526020018581526020018481526020018381525060026000820151816000015560208201518160010155604082015181600201556060820151816003015560808201518160040155905050505050505050565b606080606080606060008090505b60078054905081101561137f576007818154811061109a57fe5b90600052602060002090600a020160000154871415611372576000600882815481106110c257fe5b90600052602060002001549050806040519080825280602002602001820160405280156110fe5781602001602082028038833980820191505090505b509650806040519080825280602002602001820160405280156111305781602001602082028038833980820191505090505b509550806040519080825280602002602001820160405280156111625781602001602082028038833980820191505090505b509450806040519080825280602002602001820160405280156111945781602001602082028038833980820191505090505b509350806040519080825280602002602001820160405280156111c65781602001602082028038833980820191505090505b50925060008090505b8181101561135b57600783815481106111e457fe5b90600052602060002090600a020160010160008281526020019081526020016000206000015488828151811061121657fe5b6020026020010181815250506007838154811061122f57fe5b90600052602060002090600a020160010160008281526020019081526020016000206001015487828151811061126157fe5b6020026020010181815250506007838154811061127a57fe5b90600052602060002090600a02016001016000828152602001908152602001600020600201548682815181106112ac57fe5b602002602001018181525050600783815481106112c557fe5b90600052602060002090600a02016001016000828152602001908152602001600020600301548582815181106112f757fe5b6020026020010181815250506007838154811061131057fe5b90600052602060002090600a020160010160008281526020019081526020016000206004015484828151811061134257fe5b60200260200101818152505080806001019150506111cf565b508686868686965096509650965096505050611381565b8080600101915050611080565b505b91939590929450565b60608060608060606007805490506040519080825280602002602001820160405280156113c65781602001602082028038833980820191505090505b50905060606007805490506040519080825280602002602001820160405280156113ff5781602001602082028038833980820191505090505b50905060606007805490506040519080825280602002602001820160405280156114385781602001602082028038833980820191505090505b50905060606007805490506040519080825280602002602001820160405280156114715781602001602082028038833980820191505090505b50905060008090505b600780549050811015611570576007818154811061149457fe5b90600052602060002090600a0201600001548582815181106114b257fe5b602002602001018181525050600781815481106114cb57fe5b90600052602060002090600a0201600201548482815181106114e957fe5b6020026020010181815250506007818154811061150257fe5b90600052602060002090600a02016003015483828151811061152057fe5b6020026020010181815250506007818154811061153957fe5b90600052602060002090600a02016004015482828151811061155757fe5b602002602001018181525050808060010191505061147a565b508383838397509750975097505050505090919293565b6040518060a0016040528060008019168152602001600080191681526020016000815260200160008152602001600080191681525090565b6040518060a00160405280600080191681526020016000801916815260200160008019168152602001600080191681526020016115fa61162c565b81525090565b81548183558181111561162757818360005260206000209182019101611626919061166a565b5b505050565b6040518060a0016040528060008019168152602001600080191681526020016000801916815260200160008019168152602001600080191681525090565b61168c91905b80821115611688576000816000905550600101611670565b5090565b9056fe596f7520646f6e277420686176652061636365737320746f2074686973207265736f75726365a265627a7a72315820f214cd4cbf9efd8d5c9bf94233770042214cfe03a1845aea0769a593221cb98e64736f6c63430005100032",
  "source": "// SPDX-License-Identifier: MIT\r\npragma solidity >=0.4.22 <0.9.0;\r\n\r\ncontract AgromartContract {\r\n\r\n    struct Address {\r\n        bytes32 reciepientName;\r\n        bytes32 line1;\r\n        bytes32 city;\r\n        bytes32 postalCode;\r\n        bytes32 countryCode;\r\n    }\r\n    \r\n    struct Product {\r\n        bytes32 _id;\r\n        bytes32 title;\r\n        uint price;\r\n        uint quantity;\r\n        bytes32 images;\r\n        // Image images;\r\n    }\r\n\r\n    struct Payment {\r\n        bytes32 paymentId;\r\n        mapping(uint => Product) cart;\r\n        bytes32 username;\r\n        bytes32 email;\r\n        bytes32 timestamps;\r\n        Address buyerAddress;\r\n    }\r\n    \r\n    string public name; // name of contract;\r\n    address public accessor;\r\n    Address public buyerAddress;\r\n    // Image public images; \r\n    Payment [] private payments; //payment\r\n    //Store products length for each payments\r\n    uint [] private productSize;\r\n    \r\n    \r\n    modifier isAdmin (address initiatorAddress){\r\n        require(msg.sender == initiatorAddress, \"You don't have access to this resource\");\r\n        _;\r\n    } \r\n\r\n    constructor  (string memory _name, address _accessor) public {\r\n        name = _name; //name of account;\r\n        accessor = _accessor; //address of user who can authenticate transaction\r\n    }\r\n\r\n    function setAddress (\r\n        bytes32 reciepientName, \r\n        bytes32 line1, \r\n        bytes32 city, \r\n        bytes32 postalCode, \r\n        bytes32 countryCode)\r\n        public isAdmin(accessor) \r\n        {\r\n            buyerAddress = Address(\r\n                reciepientName, \r\n                line1, \r\n                city, \r\n                postalCode, \r\n                countryCode\r\n            );\r\n        }\r\n     \r\n     function setPayment(\r\n        bytes32 paymentId,  \r\n        bytes32 username,\r\n        bytes32 email, \r\n        bytes32 timestamps\r\n        ) public isAdmin(accessor) {\r\n            \r\n        Payment memory payment = Payment(\r\n            paymentId,\r\n            username,\r\n            email,\r\n            timestamps,\r\n            buyerAddress\r\n        );\r\n            //Create product in cart\r\n            // payment.cart[index] = product;\r\n            payments.push(payment);\r\n            \r\n            productSize.length = payments.length;\r\n            // initialize product size array\r\n            productSize[payments.length - 1] = 0;\r\n           \r\n\r\n        }\r\n    \r\n    function setProduct (\r\n        bytes32 _id,\r\n        bytes32 title,\r\n        uint price,\r\n        uint quantity,\r\n        bytes32 images\r\n        ) public isAdmin(accessor) \r\n        {\r\n\r\n            require(payments.length > 0, \"You have not added any payment.\");\r\n            \r\n            Product memory _product = Product(\r\n              _id,\r\n              title,\r\n              price,\r\n              quantity,\r\n              images\r\n            );\r\n           \r\n            Payment storage currPayment = payments[payments.length - 1];\r\n            currPayment.cart[productSize[payments.length - 1]] = _product;\r\n            productSize[payments.length - 1] += 1; //increment index for subsequent products that will be added to cart\r\n        }\r\n\r\n        function getPayments () public view returns (bytes32 [] memory, bytes32[] memory, bytes32[] memory, bytes32 [] memory){\r\n            bytes32 [] memory _paymentId = new bytes32 [](payments.length);\r\n        //    bytes32 [] memory _user_id = new bytes32 [](payments.length);\r\n           bytes32 [] memory _name = new bytes32 [](payments.length);\r\n            bytes32 [] memory _email = new bytes32 [](payments.length);\r\n           bytes32 [] memory _timestamps = new bytes32 [](payments.length);\r\n            for (uint i = 0; i < payments.length; i++){\r\n             _paymentId[i] = payments[i].paymentId;\r\n            //  _user_id[i] = payments[i].user_id;\r\n             _name[i] = payments[i].username;\r\n             _email[i] = payments[i].email;\r\n            _timestamps[i] = payments[i].timestamps;\r\n            }\r\n\r\n            return (_paymentId, _name, _email, _timestamps);\r\n\r\n        }\r\n\r\n        function getAllAddress() public view returns (bytes32 [] memory, bytes32 [] memory, bytes32 [] memory, bytes32 [] memory,bytes32 [] memory){\r\n            //  Retrieve all addressess\r\n           bytes32 [] memory _reciepientName = new bytes32 [](payments.length);\r\n           bytes32 [] memory _line1 = new bytes32 [](payments.length);\r\n           bytes32 [] memory _city = new bytes32 [](payments.length);\r\n           bytes32 [] memory _postalCode = new bytes32 [](payments.length);\r\n           bytes32 [] memory _countryCode = new bytes32 [](payments.length);\r\n\r\n            for(uint i=0; i < payments.length; i++){\r\n                _reciepientName[i] = payments[i].buyerAddress.reciepientName;\r\n                _line1[i] = payments[i].buyerAddress.line1; \r\n                _city[i] = payments[i].buyerAddress.city;\r\n                _postalCode[i] = payments[i].buyerAddress.postalCode;\r\n                _countryCode[i] = payments[i].buyerAddress.countryCode;\r\n            }\r\n            return ( _reciepientName, _line1, _city,_postalCode, _countryCode);\r\n         }\r\n\r\n\r\n        function getProducts (bytes32 paymentId) public view returns (bytes32 [] memory _id, bytes32 [] memory _title, uint [] memory _price, uint [] memory _quantity,bytes32 [] memory _images) {\r\n            \r\n            for (uint i=0; i < payments.length; i++){\r\n                if(paymentId == payments[i].paymentId){\r\n                    // Retrieve the products length previously stored in array\r\n                    uint prodSize = productSize[i];\r\n                    _id = new bytes32 [](prodSize); \r\n                    _title = new bytes32 [](prodSize); \r\n                    _price = new uint [](prodSize); \r\n                    _quantity = new uint [](prodSize); \r\n                    _images = new bytes32 [](prodSize);\r\n                    // Loop through the product map base on the product length\r\n                    for(uint j = 0; j < prodSize; j++){\r\n                        _id[j] = payments[i].cart[j]._id;\r\n                        _title[j] = payments[i].cart[j].title;\r\n                        _price[j] = payments[i].cart[j].price;\r\n                        _quantity[j] = payments[i].cart[j].quantity;\r\n                        _images[j] = payments[i].cart[j].images;\r\n                    }\r\n                    \r\n                    return(_id, _title, _price, _quantity, _images);\r\n\r\n                }\r\n\r\n            }\r\n\r\n        }\r\n\r\n        function getPaymentSize () public view returns (uint ){\r\n            uint res = payments.length;\r\n            return res;\r\n        }\r\n\r\n        function getProductsLen () public view returns (uint [] memory) {\r\n            uint [] memory size = productSize;\r\n            return size;\r\n        }\r\n\r\n\r\n}",
  "sourcePath": "C:/Users/HP/Desktop/Class/ReactProjetcs2/AgromartContract/contracts/AgromartContract.sol",
  "compiler": {
    "name": "solc",
    "version": "0.5.16+commit.9c3226ce.Emscripten.clang"
  },
  "schemaVersion": "3.4.1",
  "updatedAt": "2021-06-13T19:07:32.744Z",
  "networkType": "ethereum",
  "devdoc": {
    "methods": {}
  },
  "userdoc": {
    "methods": {}
  }
}